:040000008A11112828
:10000800FE00030E83120313A0000408A1000A08CF
:10001800A2007F08A3008A15562C8A11132883137F
:10002800623084006E308A154E248A11A030840014
:10003800BA308A154E2483018A11D12C83160313F2
:10004800C201831203135B03031D4A2A8312590852
:10005800DD005808DC000310DC0DDD0DDC09DD09CE
:10006800DC0A0319DD0A5C08033E83160313C30088
:10007800831203135D080318013E003E8316031321
:10008800C400C701C8018312031359088316031358
:10009800C60083120313580883160313C5004608C5
:1000A800803A83120313DC00831603134808803A4E
:1000B800831203135C02031D652883160313470884
:1000C8004502031C932C831603134608803AFF004D
:1000D80080307F02031D722801304502031C162957
:1000E80083160313450983120313DC0083160313D5
:1000F800460983120313DD00DC0A0319DD0A5408DC
:100108005C07B80055080318550A5D07B90056087A
:1001180083160313470783120313BA0057080318FB
:10012800570A83160313480783120313BB005408A6
:1001380083160313450783120313BC0055080318DD
:10014800550A83160313460783120313BD00560886
:1001580083160313470783120313BE0057080318B7
:10016800570A83160313480783120313BF008A1123
:10017800ED268A1183160313450983120313DC0045
:1001880083160313460983120313DD00DC0A0319DF
:10019800DD0A54085C07B80055080318550A5D07BE
:1001A800B90083160313470983120313DE0083166D
:1001B8000313480983120313DF00DE0A0319DF0A59
:1001C80056085E07BA0057080318570A5F07BB00AE
:1001D800540883160313450783120313BC005508FC
:1001E8000318550A83160313460783120313BD0029
:1001F80083160313470983120313E00083160313BE
:10020800480983120313E100E00A0319E10A5608BA
:100218006007BE0057080318570A6107BF008A1114
:10022800ED268A11831603134808803AFF008030B0
:100238007F02031D212901304702031CC5298316AB
:100248000313470983120313DC00831603134809B9
:1002580083120313DD00DC0A0319DD0A54085C0766
:10026800B80055080318550A5D07B900831603132B
:10027800450983120313DE0083160313460983120C
:100288000313DF00DE0A0319DF0A56085E07BA0007
:1002980057080318570A5F07BB005408831603134F
:1002A800470783120313BC0055080318550A831621
:1002B8000313480783120313BD008316031345096C
:1002C80083120313E00083160313460983120313F2
:1002D800E100E00A0319E10A56086007BE00570862
:1002E8000318570A6107BF008A11ED268A11831681
:1002F8000313470983120313DC0083160313480909
:1003080083120313DD00DC0A0319DD0A54085C07B5
:10031800B80055080318550A5D07B9005608831632
:100328000313450783120313BA0057080318570A23
:1003380083160313460783120313BB00540883165E
:100348000313470783120313BC0055080318550A03
:1003580083160313480783120313BD005608831638
:100368000313450783120313BE0057080318570ADF
:1003780083160313460783120313BF008A11ED2661
:100388008A1183160313C41FF8294808831203131C
:10039800DD0083160313470883120313DC000310E0
:1003A800DC0DDD0D0310DC0DDD0D83160313430892
:1003B800831203135C07DE00831603134408031833
:1003C800440A831203135D07DF005E08063E8316A6
:1003D8000313C300831203135F080318013E003E92
:1003E80083160313C400412A450983120313DC0052
:1003F80083160313460983120313DD00DC0A03196D
:10040800DD0A831603134708831203135C07DE0013
:100418008316031348080318480A831203135D0759
:10042800DF000310DE0DDF0D0310DE0DDF0D831678
:1004380003134308831203135E07E00083160313B4
:1004480044080318440A831203135F07E100600895
:100458000A3E83160313C3008312031361080318AB
:10046800013E003E83160313C4004508FF3EC50045
:1004780046080318013EFF3EC6004708013EC70074
:1004880048080318013E003EC8005328831203138E
:100498005A03031D682C5908DD005808DC000310B6
:1004A800DC0DDD0DDC09DD09DC0A0319DD0A5C0859
:1004B800033E83160313C300831203135D08031856
:1004C800013E003E83160313C400C701C80183120E
:1004D8000313590883160313C6008312031358081D
:1004E80083160313C5004608803A83120313DC0001
:1004F800831603134808803A831203135C02031D12
:10050800892A8316031347084502031C932C831278
:100518000313540883160313470783120313B00009
:1005280055080318550A8316031348078312031343
:10053800B10083160313450983120313DC008316E5
:100548000313460983120313DD00DC0A0319DD0ACD
:1005580056085C07B20057080318570A5D07B3002E
:100568008A1599258A1183160313470983120313E1
:10057800DC0083160313480983120313DD00DC0A29
:100588000319DD0A54085C07B00055080318550A1A
:100598005D07B10083160313450983120313DE00B8
:1005A80083160313460983120313DF00DE0A0319B7
:1005B800DF0A56085E07B20057080318570A5F0794
:1005C800B3008A1599258A118312031354088316D8
:1005D8000313450783120313B00055080318550A7F
:1005E80083160313460783120313B10083160313FC
:1005F800470983120313DC00831603134809831287
:100608000313DD00DC0A0319DD0A56085C07B20093
:1006180057080318570A5D07B3008A1599258A11E8
:1006280083160313450983120313DC00831603138F
:10063800460983120313DD00DC0A0319DD0A540896
:100648005C07B00055080318550A5D07B10083160A
:100658000313470983120313DE00831603134809A3
:1006680083120313DF00DE0A0319DF0A56085E0748
:10067800B20057080318570A5F07B3008A1599256F
:100688008A1183120313540883160313470783122E
:100698000313B00055080318550A831603134807B7
:1006A80083120313B10056088316031345078312F8
:1006B8000313B20057080318570A83160313460793
:1006C80083120313B3008A1599258A11831603131D
:1006D800470983120313DC008316031348098312A6
:1006E8000313DD00DC0A0319DD0A54085C07B000B7
:1006F80055080318550A5D07B100560883160313F9
:10070800450783120313B20057080318570A8316C4
:100718000313460783120313B3008A1599258A1118
:100728008312031354088316031345078312031314
:10073800B00055080318550A831603134607831299
:100748000313B100560883160313470783120313D4
:10075800B20057080318570A831603134807831271
:100768000313B3008A1599258A11831603134509C3
:1007780083120313DC008316031346098312031341
:10078800DD00DC0A0319DD0A54085C07B0005508CF
:100798000318550A5D07B100560883160313470767
:1007A80083120313B20057080318570A831603135A
:1007B800480783120313B3008A1599258A118316F3
:1007C8000313C41F162C480883120313DD00831675
:1007D8000313470883120313DC000310DC0DDD0D3F
:1007E8000310DC0DDD0D8316031343088312031376
:1007F8005C07DE008316031344080318440A8312B7
:1008080003135D07DF005E08063E83160313C3006B
:10081800831203135F080318013E003E8316031377
:10082800C4005F2C450983120313DC0083160313ED
:10083800460983120313DD00DC0A0319DD0A831657
:1008480003134708831203135C07DE0083160313A0
:1008580048080318480A831203135D07DF000310D2
:10086800DE0DDF0D0310DE0DDF0D831603134308C5
:10087800831203135E07E00083160313440803186A
:10088800440A831203135F07E10060080A3E8316D7
:100898000313C3008312031361080318013E003ECB
:1008A80083160313C4004508FF3EC5004608031815
:1008B800013EFF3EC6004708013EC700480803182E
:1008C800013E003EC800772A83120313620883168C
:1008D8000313BE0083120313630883160313BF00B8
:1008E800C001C10183120313640883160313BA00FD
:1008F80083120313650883160313BB00BC01BD01F3
:100908003B0883120313E300831603133A08831288
:100918000313E20083160313C201C20A2A288316AE
:1009280003134203031D08004208013E8312031308
:10093800DC005C0883160313C2003F08831203130C
:10094800E300831603133E0883120313E2004F2AC1
:1009580083120313A501A50ADF30A4002408831617
:1009680003138705831203138716831603130716C9
:10097800F73083120313A400240883160313870592
:100988008312031387159401141683160313141383
:100998009413831203139416080007308316031365
:1009A8009F00C03081008A1542268A117830831250
:1009B8000313D4000030D500D230D6000030D70061
:1009C8003230D8000030D900DA01DB01DB0A8A11A5
:1009D80022208A11EE2C83120313A800BF30A7002F
:1009E800270883160313870583120708BF39870072
:1009F80028088A1561240800FF1B0A2D83137F1815
:100A080083170008840A0319FF0A08007F087F3942
:100A18008A000408840A0319FF0A8200003400349B
:100A2800003400340034003406345F3406340034B3
:100A38000734033400340734033424347E34243434
:100A48007E34243424342B346A341234003463342E
:100A58001334083464346334363449345634203417
:100A680050340034073403340034003400343E3446
:100A7800413400340034003441343E34003400340E
:100A880008343E341C343E340834083408343E34C8
:100A9800083408340034E034603400340034083456
:100AA80008340834083408340034603460340034BE
:100AB8000034203410340834043402343E345134C1
:100AC800493445343E34003442347F3440340034B1
:100AD800623451344934493446342234493449342F
:100AE800493436341834143412347F3410342734EB
:100AF80045344534453439343C344A34493449342E
:100B0800303401347134093405340334363449340B
:100B180049344934363406344934493429341E3486
:100B280000346C346C34003400340034EC346C34ED
:100B3800003400340834143422344134003424346A
:100B480024342434243424340034413422341434F6
:100B58000834023401345934093406343E344134FB
:100B68005D3455341E347E340934093409347E34F6
:100B78007F3449344934493436343E34413441347D
:100B8800413422347F344134413441343E347F345B
:100B980049344934493441347F34093409340934F7
:100BA80001343E344134493449347A347F3408348A
:100BB800083408347F34003441347F3441340034FD
:100BC80030344034403440343F347F3408341434B3
:100BD800223441347F3440344034403440347F340C
:100BE8000234043402347F347F3402340434083449
:100BF8007F343E344134413441343E347F34093407
:100C08000934093406343E344134513421345E34D5
:100C18007F34093409341934663426344934493464
:100C280049343234013401347F34013401343F34DF
:100C38004034403440343F341F342034403420346E
:100C48001F343F3440343C3440343F34633414342C
:100C580008341434633407340834703408340734DF
:100C68007134493445344334003400347F344134DA
:100C7800413400340234043408341034203400344D
:100C8800413441347F3400340434023401340234B2
:100C98000434803480348034803480340034033425
:100CA8000734003400342034543454345434783401
:100CB8007F34443444344434383438344434443449
:100CC8004434283438344434443444347F34383455
:100CD800543454345434183408347E3409340934C0
:100CE80000341834A434A434A4347C347F34043459
:100CF800043478340034003400347D340034003453
:100D08004034803484347D3400347F3410342834C3
:100D180044340034003400347F34403400347C34AC
:100D280004341834043478347C3404340434783487
:100D3800003438344434443444343834FC3444348F
:100D48004434443438343834443444344434FC343B
:100D5800443478344434043408340834543454342F
:100D68005434203404343E344434243400343C3481
:100D7800403420347C3400341C3420344034203453
:100D88001C343C346034303460343C346C341034BB
:100D980010346C3400349C34A03460343C34003457
:100DA8006434543454344C34003408343E344134BC
:100DB80041340034003400347F34003400340034CB
:100DC800413441343E3408340234013402340134AD
:100DD800003483120313D201D3010130C60000305E
:100DE800C7000130C8000030C9003809C0003909FF
:100DF800C100C00A0319C10A3C084007CA003D08DF
:100E080003183D0A4107CB003A09C0003B09C1005D
:100E1800C00A0319C10A3E084007CC003F0803185E
:100E28003F0A4107CD003908CF003808CE003B08FB
:100E3800D1003A08D000CB1F2A2FFF30C800FF305E
:100E4800C900CA09CB09CA0A0319CB0ACD1F352F15
:100E5800FF30C600FF30C700CC09CD09CC0A031902
:100E6800CD0A4B08803AC0004D08803A4002031D65
:100E78003F2F4C084A02031C9A2F031083120313B6
:100E88004A0DC2004B0DC30003104C0DC4004D0D9C
:100E9800C500831203133D084F06031D552F3C0858
:100EA8004E060319F22F4F08B1004E08B000510842
:100EB800B3005008B2008A1599258A1183120313CA
:100EC80048084E07CE0049080318490A4F07CF00C3
:100ED80044085207D20045080318450A5307D300AF
:100EE8004B08803AC0005308803A4002031D7E2F09
:100EF80052084A0203184D2F83120313460850075D
:100F0800D00047080318470A5107D1004209C0001A
:100F18004309C100C00A0319C10A52084007D20098
:100F280053080318530A4107D3004D2F83120313A4
:100F38004C0DC2004D0DC30003104A0DC4004B0DEB
:100F4800C500831203133F085106031DAD2F3E0849
:100F580050060319F22F4F08B1004E08B00051088F
:100F6800B3005008B2008A1599258A118312031319
:100F780046085007D00047080318470A5107D10010
:100F880044085207D20045080318450A5307D300FE
:100F98004D08803AC0005308803A4002031DD62FFE
:100FA80052084C020318A52F8312031348084E0752
:100FB800CE0049080318490A4F07CF004209C0006C
:100FC8004309C100C00A0319C10A52084007D200E8
:100FD80053080318530A4107D300A52F4F08B1003F
:100FE8004E08B0005108B3005008B2008A15992580
:020FF8000800EF
:10189C0064008001840A04060319003404064F2CEA
:1018AC002308FF0022088A0021088400200E8300F0
:1018BC00FE0E7E0E090083120313A500A601250857
:1018CC00930083160313141C672C83120313130841
:1018DC00A4002408A6002608080083120313A800FD
:1018EC00BF30A70027088316031387058312031341
:1018FC0007084038870028088A15612408008312DD
:10190C000313A500013083120313A502250A031942
:10191C000800C73083120313A400942CA40B932C3F
:10192C00972C0000882C83120313B101B201B30170
:10193C00B4010030A700A8000030A900AA00EF30C5
:10194C00AB000030AC003F30AD000130AE008A156A
:10195C0001258A15BF3083120313B000300883169B
:10196C000313870583120313070840388700FB30E5
:10197C00B000300883160313870583120708FB3960
:10198C008700013032024030031931020318F52C64
:10199C00B301B40100303402F030031933020318E0
:1019AC00EC2C65088A1561248A15831203136408CC
:1019BC008A1561248A15831203133308013EB30080
:1019CC0034080318013E003EB400D02C3108013E0F
:1019DC00B10032080318013E003EB200C72CFB30A8
:1019EC00B00030088316031387058312031307080E
:1019FC00043887000800FB3083120313AF002F0854
:101A0C0083160313870583120708FB398700BF3041
:101A1C00AF002F0883160313870583120708BF39FD
:101A2C0087002A308A1561248A15BF30831203136C
:101A3C00AF002F08831603138705831203130708BF
:101A4C004038870028088A1561248A1583120313ED
:101A5C0027088A1561248A15831203132C088A150A
:101A6C0061248A15831203132B088A1561248A15A5
:101A7C00BF3083120313AF002F088316031387059F
:101A8C0083120708BF3987002B308A1561248A1509
:101A9C00BF3083120313AF002F088316031387057F
:101AAC00831203130708403887002A088A1561241B
:101ABC008A158312031329088A1561248A15831247
:101ACC0003132E088A1561248A15831203132D081B
:101ADC008A1561248A15BF3083120313AF002F08B7
:101AEC0083160313870583120708BF3987002C3030
:101AFC008A156124BF3083120313AF002F0883169D
:101B0C000313870583120313070840388700FB3043
:101B1C00AF002F08831603138705831203130708DE
:101B2C00043887000800FF2D831203133208013E8E
:101B3C00B40033080318013E003EB500B409B509E2
:101B4C00B40A0319B50A3408F03EB6003508031878
:101B5C00013E003EB7003108B3003008B200FA2D48
:101B6C003008013EB40031080318013E003EB500B8
:101B7C00B409B509B40A0319B50A3408F03EB0002B
:101B8C0035080318013E003EB1003208013EB40096
:101B9C0033080318013E003EB500B409B509B40A78
:101BAC000319B50A3408403EB20035080318013E4B
:101BBC00013EB3000C2E3308B7003208B6003008D3
:101BCC00013EB40031080318013E003EB500B409D3
:101BDC00B509B40A0319B50A3408403EB2003508F9
:101BEC000318013E013EB3003708B1003608B000BF
:101BFC000C2E831203136808013A03199A2D033A29
:101C0C000319B62D013A0319E12D0C2E3108A80049
:101C1C003008A7003308AA003208A9003108AC002C
:101C2C003008AB003308AE003208AD008A15012530
:101C3C008A15FB3083120313B40034088316031384
:101C4C00870583120708FB39870063088A1561240E
:101C5C008A158312031362088A156124FB308312E0
:101C6C000313B4003408831603138705831203137C
:101C7C0007080438870008008A11AC248A157F30C5
:101C8C0083120313B50035088316031387058312DB
:101C9C00031307088038870005308A1585248A15B8
:101CAC007F3083120313B5003508831603138705A1
:101CBC00831207087F39870005308A1585248A1519
:101CCC00BF3083120313B500350883160313870541
:101CDC0083120708BF398700FB30B500350883161F
:101CEC0003138705831203130708043887007F301A
:101CFC00B5003508831603138705831203130708F1
:101D0C008038870005308A1585248A15FB308312AC
:101D1C000313B500350883160313870583120708D0
:101D2C00FB398700CB308A11EF248A1539308A159C
:101D3C0073248A152C308A1573248A1500308A1561
:101D4C0073248A1534308A1573248A1502308A1547
:101D5C0073248A15CF308A11EF248A1500308A1526
:101D6C0073248A15C1308A1573248A1530308A156C
:101D7C0073248A15E8308A11EF248A1585308A1568
:101D8C0073248A1500308A1573248A1578308A15C5
:101D9C0073248A15EA308A11EF248A1500308A15CB
:101DAC0073248A1500308A1573248A15ED308A1134
:101DBC00EF248A1564308A1573248A1503308A152A
:101DCC0073248A1512308A1573248A1581308A156A
:101DDC0073248A15F7308A11EF248A1520308A155E
:101DEC0073248A15C0308A11EF248A1523308A1582
:101DFC0073248A15C1308A11EF248A1510308A1584
:101E0C0073248A15C5308A11EF248A153E308A1541
:101E1C0073248A1528308A1573248A15C7308A11C1
:101E2C00EF248A1586308A1573248A1536308A1168
:101E3C00EF248A1548308A1573248A153A308A1192
:101E4C00EF248A1555308A1573248A15B1308A11FE
:101E5C00EF248A1500308A1573248A1518308A15D8
:101E6C0073248A15B6308A11EF248A1508308A1526
:101E7C0073248A1582308A1573248A1527308A15A3
:101E8C0073248A15F2308A11EF248A1500308A15D2
:101E9C0073248A1526308A11EF248A1501308A158D
:101EAC0073248A15E0308A11EF248A150F308A15B5
:101EBC0073248A1531308A1573248A152B308A15B0
:101ECC0073248A150C308A1573248A150E308A15E2
:101EDC0073248A1508308A1573248A154E308A1596
:101EEC0073248A15F1308A1573248A1537308A15B4
:101EFC0073248A1507308A1573248A1510308A15B5
:101F0C0073248A1503308A1573248A150E308A15AA
:101F1C0073248A1509308A1573248A1500308A15A2
:101F2C0073248A15E1308A11EF248A1500308A1542
:101F3C0073248A150E308A1573248A1514308A1569
:101F4C0073248A1503308A1573248A1511308A1567
:101F5C0073248A1507308A1573248A1531308A1533
:101F6C0073248A15C1308A1573248A1548308A1552
:101F7C0073248A1508308A1573248A150F308A1534
:101F8C0073248A150C308A1573248A1531308A15FE
:101F9C0073248A1536308A1573248A150F308A15E6
:101FAC0073248A1511308A11EF248A1578308A151A
:101FBC0085248A1529308A11EF248A152C308A1130
:101FCC00EF248A15FB3083120313B50035088316F2
:101FDC0003138705831203130708043887001F3087
:101FEC00E2004830E3000830E400F830E5008A15E0
:041FFC00992408001C
:02400E00F9FFB8
:00000001FF
