:060000000A128A11122809
:10000800FE00030EF0000408F1000A08F200831253
:1000180003137F08F3000A128A11622F0A128A1149
:100028001528F601F701F801F9018313513084000E
:1000380066300A128A116D270A128A11A0308400CC
:10004800B4300A128A116D2783010A128A11E72D2A
:1000580083120313A300FE30A100210883160313A3
:10006800860583120608FE398600FD30A1002108A6
:1000780083160313860583120608FD398600FB30B4
:10008800A100210883160313860583120608FB398D
:100098008600F730A1002108831603138605831212
:1000A8000608F7398600EF30A100210883160313EC
:1000B800860583120608EF398600DF30A100210883
:1000C80083160313860583120608DF398600230882
:1000D800A10004300310A10CFF3E031D6E28210867
:1000E800A2002208A400FE30A100210883160313F1
:1000F800860583120313241C8428060801388628E1
:100108000608FE3986002408A1000310210CA2006D
:100118002208A400FD30A1002108831603138605D8
:1001280083120313241C9B28060802389D280608FE
:10013800FD3986002408A1000310210CA200220822
:10014800A400FB30A100210883160313860583123F
:100158000313241CB22806080438B4280608FB39FF
:1001680086002408A1000310210CA2002208A40084
:10017800F730A100210883160313860583120313A1
:10018800241CC92806080838CB280608F739860031
:1001980020080319DA28EF30A10021088316031379
:1001A80086058312031306081038860064300A1285
:1001B8008A11D9260A128A11DF3083120313A1008B
:1001C80021088316031386058312031306082038B3
:1001D800860064300A128A11D9260A128A11DF3081
:1001E80083120313A10021088316031386058312C3
:1001F8000608DF39860064300A128A11D9260A12E5
:100208008A11FE3083120313A100210883160313F9
:10021800860583120608FE398600FD30A1002108F4
:1002280083160313860583120608FD398600FB3002
:10023800A100210883160313860583120608FB39DB
:100248008600F730A1002108831603138605831260
:100258000608F7398600EF30A1002108831603133A
:10026800860583120608EF39860023080F39A10096
:100278002108A400FE30A100210883160313860577
:1002880083120313241C4B29060801384D2906083C
:10029800FE3986002408A1000310210CA2002208C0
:1002A800A400FD30A10021088316031386058312DC
:1002B8000313241C62290608023864290608FD393C
:1002C80086002408A1000310210CA2002208A40023
:1002D800FB30A1002108831603138605831203133C
:1002E800241C7929060804387B290608FB3986006E
:1002F8002408A1000310210CA2002208A400F73052
:10030800A100210883160313860583120313241CF6
:1003180090290608083892290608F7398600200827
:100328000319A129EF30A1002108831603138605BC
:100338008312031306081038860064300A128A11E3
:10034800D9260A128A11DF3083120313A10021086B
:1003580083160313860583120313060820388600C4
:1003680064300A128A11D9260A128A11DF308312E0
:100378000313A100210883160313860583120608B8
:10038800DF39860064300A128A11D92608008312E0
:1003980003133008BD002F08BC002E08BB002D0831
:1003A800BA003B30C1009A30C000CA30BF000030EC
:1003B800BE00B9013208330403190800BD1FFA2929
:1003C8002D30B400310884003408831380000130D4
:1003D800B4003408B907BA09BB09BC09BD09BA0A8F
:1003E8000319BB0A0319BC0A0319BD0AB8013D0861
:1003F8003C043B043A04031D992AB801B80A0030AA
:10040800C1000030C0000030BF000130982A410808
:100418003D02031D192A40083C02031D192A3F0802
:100428003B02031D192A3E083A0203181E2A3808FF
:1004380003197A2A4108A3004008A2003F08A10036
:100448003E08A0003D08A7003C08A6003B08A50000
:100458003A08A4000A128A1146250A128A11831240
:1004680003132008B4003408B8003808303EB4003C
:1004780039083107B5003508840034088313800033
:100488000130B4003408B9073808B400B501B60122
:10049800B7013708A3003608A2003508A1003408C0
:1004A800A0004108A7004008A6003F08A5003E0894
:1004B800A4000A128A11A6250A128A1183120313AC
:1004C8002008BA022108031C210F6B2A6C2ABB02E0
:1004D8002208031C220F712A722ABC022308031C5B
:1004E800230F772A782ABD02B801B80A0030A30082
:1004F8000030A2000030A1000A30A0004108A70087
:100508004008A6003F08A5003E08A4000A128A1168
:1005180046250A128A11831203132308C1002208F0
:10052800C0002108BF002008BE003908B400B5018A
:1005380033083502031DA22A320834020318AA2AF6
:10054800410840043F043E04031D0B2A3908B40047
:10055800B50133083502031DB32A320834020318E3
:10056800080039083107B400340884008313800177
:100578000800FE3083120313A50025088316031311
:10058800860583120608FE398600FD30A500250879
:1005980083160313860583120608FD398600FB308F
:1005A800A500250883160313860583120608FB3960
:1005B8008600F730A50025088316031386058312E5
:1005C8000608F7398600EF30A500250883160313BF
:1005D800860583120608EF398600DF30A500250856
:1005E80083160313860583120608DF3986000C304C
:1005F8000A128A112E270A128A1183120313A001E4
:1006080033300A128A112C200A128A1102300A1277
:100618008A112E270A128A1183120313A00133307C
:100628000A128A112C200A128A1102300A128A111F
:100638002E270A128A1183120313A00132300A12DC
:100648008A112C200A128A1102300A128A112E27C6
:100658000A128A1183120313A0012C300A128A117C
:100668002C200A128A1102300A128A112E270A1225
:100678008A1183120313A00106300A128A112C2052
:100688000A128A1102300A128A112E270A128A11B6
:1006980083120313A0010C300A128A112C200A12AB
:1006A8008A1102300A128A112E270A128A1183121D
:1006B8000313A00101300A128A112C200A128A1190
:1006C80002300A128A112E270A128A118312031382
:1006D800A00102300A128A112C200A128A11023053
:1006E8000A128A112E270A128A110A128A11F92669
:1006F800080083120313B0010A128A1134240A1263
:100708008A1183120313B001FF30AC002C08AE002D
:100718002E2CFE30AC002C08831603138705831299
:10072800031307080138B82BFD30AC002C088316DA
:10073800031387058312031307080238B82BFB300D
:10074800AC002C08831603138705831203130708CC
:100758000438B82BF730AC002C0883160313870530
:1007680083120313070808388700C82B3008003A9B
:1007780003198D2B013A0319982B033A0319A32B5C
:10078800013A0319AE2BC82B14300A128A11D92644
:100798000A128A110A128A11D6240A128A1183129D
:1007A8000313AC002C08AF00022CFE30AC002C0860
:1007B80083160313870583120708FE39002CFD30C2
:1007C800AC002C0883160313870583120708FD392C
:1007D800002CFB30AC002C0883160313870583120A
:1007E8000708FB39002CF730AC002C0883160313DC
:1007F800870583120708F7398700102C3008003A5C
:100808000319D92B013A0319E32B033A0319ED2BEA
:10081800013A0319F72B102C2F0A0319212C2F0842
:10082800AC0002300310AC0DFF3E031D162C30083F
:100838002C07AD002D08AE00322C32300A128A1176
:10084800D9260A128A11831203133008013EAC001C
:100858002C08B00004303002031CBA2B2E08080004
:1008680083120313AA01812C0730A0000030A100D5
:100878008730A2000030A3001030A6002608A4008C
:1008880004306F2C0730A0000030A1008730A20090
:100898000030A3002030A6002608A40005306F2CE5
:1008A8000730A0000030A1008730A2000030A3006C
:1008B8004030A6002608A40006306F2C0730A000A0
:1008C8000030A1008730A2000030A3008030A600CD
:1008D8002608A4000730A7002708A5000A128A11D5
:1008E80095260A128A1183120313A8002808A90062
:1008F8002A08013EA6002608AA0004302A02031886
:10090800942C2A08003A0319382C013A0319462C6A
:10091800033A0319542C013A0319622C7C2C7C2CC1
:10092800AA01C32CFE30A6002608831603138705E8
:1009380083120708FE39BD2CFD30A6002608831651
:100948000313870583120708FD39BD2CFB30A60069
:10095800260883160313870583120708FB39BD2C65
:10096800F730A600260883160313870583120708A5
:10097800F73987002A08013EA6002608AA00043095
:100988002A02031808002A08003A0319962C013A8B
:100998000319A02C033A0319AA2C013A0319B42C01
:1009A800BE2CBE2C83120313AB01AA01AB01FF308E
:1009B800A6002608A900402D0730A0000030A1009D
:1009C8008730A2000030A3001030A6002608A4003B
:1009D8000430172D0730A0000030A1008730A20096
:1009E8000030A3002030A6002608A4000530172DEB
:1009F8000730A0000030A1008730A2000030A3001B
:100A08004030A6002608A4000630172D0730A000A5
:100A18000030A1008730A2000030A3008030A6007B
:100A28002608A4000730A7002708A5000A128A1183
:100A380095260A128A1183120313A8002808AA000F
:100A4800332D2B08003A0319E02C013A0319EE2C38
:100A5800033A0319FC2C013A03190A2D332D2A08ED
:100A680003193B2D2B08A6002608A900442D2B08A6
:100A7800013EA6002608AB0004302B02031C252DDE
:100A880029080800003083120313AB000030AA00C5
:100A98000030A9000030A800230822042104200403
:100AA80003199D2DAC01AC0AA31B682D0130F4007D
:100AB8000310A00DA10DA20DA30DF40B5C2D0130A8
:100AC800F4007408AC07582D0130F4000310A80D89
:100AD800A90DAA0DAB0DF40B6A2D23082702031DDF
:100AE8007F2D22082602031D7F2D21082502031DC4
:100AF8007F2D20082402031C902D2008A402210821
:100B0800031C210FA5022208031C220FA60223089A
:100B1800031C230FA702281401300310A30CA20CF6
:100B2800A10CA00CFF3E031D912D0130AC02031D4A
:100B3800682D2B08A3002A08A2002908A10028086C
:100B4800A0000800003083120313AB000030AA0095
:100B58000030A9000030A800201CC62D2408A807D2
:100B6800250803110318013E031DA90726080311D0
:100B78000318013E031DAA07270803110318013EA5
:100B8800031DAB070130F4000310A40DA50DA60D3D
:100B9800A70DF40BC82D01300310A30CA20CA10C57
:100BA800A00CFF3E031DD02D23082204210420049D
:100BB800031DB02D2B08A3002A08A2002908A100B4
:100BC8002808A00008000730831603139F00C030D0
:100BD80081000A128A11BD220A128A110A128A1188
:100BE80054270A128A110A128A1142270A128A11F4
:100BF8000A128A1116270A128A1183120313CF00C8
:100C08004F08E5000A128A11F9260A128A1183127E
:100C180003136508CF00D0014F08C2005008C30075
:100C28000A128A1172260A128A11F22D1A2E8312BA
:100C38000313AA00AB012608F5002508F4002A08CA
:100C48000A128A11B7260A128A117408831203132A
:100C5800A7002708A90029082B020318080010304C
:100C6800A7002708A0002B082A07A8002808840046
:100C7800831300080A128A112C200A128A1183127F
:100C880003132B08013EA7002708AB002F2E0630C0
:100C98008A000408840A82070034003401340234CC
:100CA80003340434053406340734083409340A3468
:100CB8000B340C340D340E340F34303431343234B8
:100CC80033343434353436343734383439344134C1
:100CD80042344334443445344634003483120313D5
:100CE8004208AD004308AE000030AE1BFF30AF0035
:100CF800B0004530C4004408B1000A30B2000030EA
:100D0800B3000A128A11CB210A128A110A308312FF
:100D18000313A5000030A60045300A128A111B26CD
:100D2800080083120313220884008317231C8313EB
:100D380000082404F400220884008317231C83136A
:100D480074088000200884008317211C831300087E
:100D58002405F400250AB22E0310F40CFF3E031DEF
:100D6800B02E7408080083120313A100A201A30186
:100D780075082302031DC22E740822020318D42EFC
:100D880022082107A0002008840083130008031903
:100D9800D42E0130A2070318A30A0030A307BC2EE3
:100DA8002308F5002208F4000800F50064307502F5
:100DB800031CEC2EA330F400F40BE02E000064308A
:100DC800F502DA2E1030F400F40BE82E0A30F502A2
:100DD8000A307502031CF32EE62EF22EF32E013094
:100DE800F502750A03190800F12E83120313A001F6
:100DF80001300A128A112C200A128A1102300A12B2
:100E08008A112E270A128A1183120313A0010230B5
:100E18000A128A112C200A128A1102300A128A1127
:100E28002E2708000A128A117D230A128A118312BA
:100E38000313B1003108B200320A03192C2F32080B
:100E4800013E84000A128A114B26B1003108B20013
:100E58003208080083120313A00001308312031321
:100E6800A002200A031908000730F5006030F400DA
:100E7800F40B3C2FF50B3C2F412F312F0A128A110E
:100E88007D230A128A1183120313B1003108B300BB
:100E9800330A0319422F3308B1003108B2000800A1
:100EA8000A128A117D230A128A1183120313B100D0
:100EB8003108B200320A03190800542F7308FF00E2
:100EC80072088A0071088400700E8300FE0E7E0E80
:100ED800090064008001840A04060319003404062A
:020EE8006E2F6B
:02400E00F93F78
:00000001FF
