:060000000A128A11122809
:10000800FE00030E83120313D7000408D8000A0861
:10001800D9007F08DA000A128A113A280A128A11CE
:1000280015280A128A11FC270A128A11DF000A12FF
:100038008A11FD270A128A11E0008313A030840078
:10004800C4300A128A15DF260A128A112030840069
:100058004C300A128A15DF26F001F101F201F30192
:10006800F401F50183010A128A15E72E0C1D4829AF
:10007800831603130C1D4829083073020318C92876
:10008800013083120313CC00730A4C280310CC0DE3
:10009800FF3E031D4A284C0875050319C928730833
:1000A800031D6128FE30CC004C0883160313880515
:1000B800831203130808013888007303031D6F288F
:1000C800FD30CC004C0883160313880583120313F4
:1000D80008080238880002307306031D7E28FB30AA
:1000E800CC004C08831603138805831203130808F1
:1000F8000438880003307306031D8D28F730CC00C0
:100108004C0883160313880583120313080808385C
:10011800880004307306031D9C28EF30CC004C087F
:100128008316031388058312031308081038880000
:1001380005307306031DAB28DF30CC004C0883164E
:100148000313880583120313080820388800063033
:100158007306031DBA28BF30CC004C08831603135E
:10016800880583120313080840388800073073068F
:10017800031DC9287F30CC004C088316031388055B
:100188008312031308088038880073088312CC0090
:100198004C07303E840083130008CD00840A000811
:1001A800CE004D08F8004E08F900FA01FB01343082
:1001B800CC001330CD000030CE000030CF007808DE
:1001C800CC0779080318790FEA28EB28CD077A08B5
:1001D80003187A0FF028F128CE077B0803187B0A4A
:1001E800CF074F08FB004E08FA004D08F9004C08ED
:1001F800F8007808CC007908CD007A08CE007B0892
:10020800CF007308D0005007B43E84000008D10026
:10021800840A0008D2005108D3005208D4000030E4
:10022800D41BFF30D500D6005308CC075408031858
:10023800540F1F292029CD0755080318550F2529C4
:100248002629CE0756080318560ACF074F08FB0081
:100258004E08FA004D08F9004C08F8007808CC0060
:100268007908CD007A08CE007B08CF00083003104B
:10027800CF0CCE0CCD0CCC0CFF3E031D3B294C08FB
:100288009C0078089B000C1183120D1C952A83167C
:1002980003130D1C952A083073020318D029013066
:1002A80083120313CC00730A5B290310CC0DFF3EA5
:1002B800031D59294C0875050319D0297308031D16
:1002C8006F29FE30CC004C0883160313880583126F
:1002D8000808FE3988007303031D7C29FD30CC0013
:1002E8004C0883160313880583120808FD39880013
:1002F80002307306031D8A29FB30CC004C08831694
:100308000313880583120808FB3988000330730635
:10031800031D9829F730CC004C0883160313880571
:1003280083120808F739880004307306031DA629CC
:10033800EF30CC004C088316031388058312080895
:10034800EF39880005307306031DB429DF30CC006F
:100358004C0883160313880583120808DF398800C0
:1003680006307306031DC229BF30CC004C08831623
:100378000313880583120808BF39880007307306FD
:10038800031DD0297F30CC004C0883160313880541
:10039800831208087F3988007308013E07398312E1
:1003A800CC004C08F3007308CC004C07203E8400B6
:1003B80083130008CD00840A0008CE007308CF001C
:1003C8004F07303E84000008D000840A0008D1009E
:1003D8004E085102031DF2294D08500203181B2A2A
:1003E8007308CC004C07303E84000008CD00840A16
:1003F8000008CE005F084D07CF0060080318600AA8
:100408004E07D0004F08F6005008F7007308CC00DC
:100418004C07203E84000008CD00840A0008CE0066
:100428004E087702031D642A4D087602642A730871
:10043800CC004C07303E84000008CD00840A000838
:10044800CE007308CF004F07203E84000008D0007C
:10045800840A0008D1004E085102031D352A4D08B0
:1004680050020318852A7308CC004C07303E8400DC
:100478000008CD00840A0008CE005F09CF0060099B
:10048800D000CF0A0319D00A4D084F07D1004E08F3
:1004980003184E0A5007D2005108F6005208F70018
:1004A8007308CC004C07203E84000008CD00840A65
:1004B8000008CE0077084E02031D642A76084D0214
:1004C8000318702A7308CC004C07303E8400760865
:1004D8008000840A7708832A7308CC004C07203EE2
:1004E80084000008CD00840A0008CE007308CF00FD
:1004F8004F07303E84004D088000840A4E08800073
:10050800942A0130CC00730A8B2A0310CC0DFF3ECD
:10051800031D892A4C08FF3A7405CD004D08F400E4
:100528000D1083125A08FF0059088A0058088400E1
:10053800570E8300FE0E7E0E09000A128A151D272B
:100548000A128A11FE3083160313D4005408870553
:100558008312031307080138870005300A128A112D
:10056800E7270A128A11FE3083160313D4005408B1
:10057800870583120708FE39870005300A128A1199
:10058800E7270A128A11FD3083160313D400540892
:10059800870583120708FD398700FB30831603138C
:1005A800D40054088705831203130708043887000A
:1005B800FE3083160313D4005408870583120313EF
:1005C80007080138870005300A128A11E7270A123E
:1005D8008A11FB3083160313D4005408870583124D
:1005E8000708FB398700CB300A128A15F8260A1249
:1005F8008A1139300A128A150A270A128A112C30F0
:100608000A128A150A270A128A1100300A128A1554
:100618000A270A128A1134300A128A150A270A127E
:100628008A1102300A128A150A270A128A11CF3053
:100638000A128A15F8260A128A1100300A128A1537
:100648000A270A128A11C1300A128A150A270A12C1
:100658008A1130300A128A150A270A128A11E830DC
:100668000A128A15F8260A128A1185300A128A1582
:100678000A270A128A1100300A128A150A270A1252
:100688008A1178300A128A150A270A128A11EA3062
:100698000A128A15F8260A128A1100300A128A15D7
:1006A8000A270A128A1100300A128A150A270A1222
:1006B8008A11ED300A128A15F8260A128A11643056
:1006C8000A128A150A270A128A1103300A128A1591
:1006D8000A270A128A1112300A128A150A270A12E0
:1006E8008A1181300A128A150A270A128A11F730EC
:1006F8000A128A15F8260A128A1120300A128A1557
:100708000A270A128A11C0300A128A15F8260A1214
:100718008A1123300A128A150A270A128A11C1304F
:100728000A128A15F8260A128A1110300A128A1536
:100738000A270A128A11C5300A128A15F8260A12DF
:100748008A113E300A128A150A270A128A1128309D
:100758000A128A150A270A128A11C7300A128A153C
:10076800F8260A128A1186300A128A150A270A12EE
:100778008A1136300A128A15F8260A128A11483068
:100788000A128A150A270A128A113A300A128A1599
:10079800F8260A128A1155300A128A150A270A12EF
:1007A8008A11B1300A128A15F8260A128A11003005
:1007B8000A128A150A270A128A1118300A128A158B
:1007C8000A270A128A11B6300A128A15F8260A125E
:1007D8008A1108300A128A150A270A128A118230E9
:1007E8000A128A150A270A128A1127300A128A154C
:1007F8000A270A128A11F2300A128A15F8260A12F2
:100808008A1100300A128A150A270A128A1126301C
:100818000A128A15F8260A128A1101300A128A1554
:100828000A270A128A11E0300A128A15F8260A12D3
:100838008A110F300A128A150A270A128A113130D2
:100848000A128A150A270A128A112B300A128A15E7
:100858000A270A128A110C300A128A150A270A1264
:100868008A110E300A128A150A270A128A110830CC
:100878000A128A150A270A128A114E300A128A1594
:100888000A270A128A11F1300A128A150A270A124F
:100898008A1137300A128A150A270A128A11073074
:1008A8000A128A150A270A128A1110300A128A15A2
:1008B8000A270A128A1103300A128A150A270A120D
:1008C8008A110E300A128A150A270A128A1109306B
:1008D8000A128A150A270A128A1100300A128A1582
:1008E8000A270A128A11E1300A128A15F8260A1212
:1008F8008A1100300A128A150A270A128A110E3044
:100908000A128A150A270A128A1114300A128A153D
:100918000A270A128A1103300A128A150A270A12AC
:100928008A1111300A128A150A270A128A11073009
:100938000A128A150A270A128A1131300A128A15F0
:100948000A270A128A11C1300A128A150A270A12BE
:100958008A1148300A128A150A270A128A110830A1
:100968000A128A150A270A128A110F300A128A15E2
:100978000A270A128A110C300A128A150A270A1243
:100988008A1131300A128A150A270A128A1136305A
:100998000A128A150A270A128A110F300A128A15B2
:1009A8000A270A128A1111300A128A15F8260A1221
:1009B8008A1178300A128A11E7270A128A11293017
:1009C8000A128A15F8260A128A112C300A128A1578
:1009D800F8260A128A11DF30F000FF30F100831286
:0E09E8000313C601C7010A128A1189270800ED
:100A0000FF1B0A2D83137F1883170008840A03191C
:100A1000FF0A08007F087F398A000408840A031946
:100A2000FF0A820000340034003400340034003403
:100A300006345F340634003407340334003407349A
:100A4000033424347E3424347E34243424342B344C
:100A50006A34123400346334133408346434633435
:100A60003634493456342034503400340734033497
:100A70000034003400343E34413400340034003457
:100A800041343E340034003408343E341C343E34A7
:100A90000834083408343E34083408340034E03470
:100AA000603400340034083408340834083408341E
:100AB000003460346034003400342034103408349E
:100AC000043402343E345134493445343E34003425
:100AD00042347F3440340034623451344934493430
:100AE00046342234493449344934363418341434C1
:100AF00012347F3410342734453445344534393486
:100B00003C344A3449344934303401347134093482
:100B100005340334363449344934493436340634E0
:100B20004934493429341E3400346C346C34003474
:100B300000340034EC346C340034003408341434A1
:100B400022344134003424342434243424342434EE
:100B5000003441342234143408340234013459341A
:100B6000093406343E3441345D3455341E347E3409
:100B70000934093409347E347F34493449344934E2
:100B800036343E3441344134413422347F344134AC
:100B9000413441343E347F3449344934493441345A
:100BA0007F3409340934093401343E344134493442
:100BB00049347A347F340834083408347F340034BC
:100BC00041347F3441340034303440344034403494
:100BD0003F347F3408341434223441347F34403479
:100BE0004034403440347F340234043402347F349F
:100BF0007F340234043408347F343E344134413489
:100C000041343E347F3409340934093406343E34E7
:100C10004134513421345E347F3409340934193479
:100C20006634263449344934493432340134013489
:100C30007F34013401343F344034403440343F3455
:100C40001F342034403420341F343F3440343C348B
:100C500040343F3463341434083414346334073478
:100C6000083470340834073471344934453443341B
:100C7000003400347F3441344134003402340434CD
:100C80000834103420340034413441347F3400348B
:100C90000434023401340234043480348034803427
:100CA000803480340034033407340034003420347A
:100CB00054345434543478347F34443444344434D5
:100CC00038343834443444344434283438344434A4
:100CD000443444347F343834543454345434183421
:100CE00008347E340934093400341834A434A4346C
:100CF000A4347C347F340434043478340034003435
:100D000000347D34003400344034803484347D3405
:100D100000347F3410342834443400340034003438
:100D20007F34403400347C34043418340434783450
:100D30007C34043404347834003438344434443457
:100D400044343834FC34443444344434383438344F
:100D5000443444344434FC34443478344434043427
:100D600008340834543454345434203404343E3475
:100D70004434243400343C34403420347C34003453
:100D80001C342034403420341C343C34603430343F
:100D900060343C346C34103410346C3400349C3483
:100DA000A03460343C3400346434543454344C340F
:100DB000003408343E3441344134003400340034CB
:100DC0007F34003400340034413441343E3408343C
:100DD00002340134023401340034FD308312031331
:100DE000DD005D0883160313870583120708FD39AC
:100DF00087002A300A128A1585270A128A11FD30C7
:100E000083120313DD005D08831603138705831225
:100E100003130708023887008316031349080A12D0
:100E20008A1585270A128A118316031348080A12A5
:100E30008A1585270A128A11831603134D080A1290
:100E40008A1585270A128A11831603134C080A1281
:100E50008A1585270A128A11FD3083120313DD00DB
:100E60005D0883160313870583120708FD39870081
:100E70002B300A128A1585270A128A11FD30831237
:100E80000313DD005D088316031387058312031324
:100E9000070802388700831603134B080A128A15C5
:100EA00085270A128A11831603134A080A128A1523
:100EB00085270A128A11831603134F080A128A150E
:100EC00085270A128A11831603134E080A128A15FF
:100ED00085270A128A11FD3083120313DD005D0895
:100EE00083160313870583120708FD3987002C300A
:100EF0000A128A158527FD3083120313DD005D0871
:100F0000831603138705831203130708023887002B
:100F1000080083160313D001D101D201D3010030A0
:100F2000C800C9000030CA00CB00EF30CC00003050
:100F3000CD003F30CE000130CF000A128A11ED26DD
:100F40000A128A11FD3083120313DE005E08831635
:100F50000313870583120313070802388700013043
:100F6000831603135102403003195002031808007E
:100F700083160313D201D30100305302F03003195A
:100F800052020318DE2F8312031347080A128A1530
:100F900085270A128A118312031346080A128A153A
:100FA00085270A128A11831603135208013ED200C4
:100FB00053080318013E003ED300BC2F5008013EE9
:100FC000D00051080318013E003ED100AF2F83121C
:100FD0000313DD00013083120313DD025D0A0319E0
:100FE0000800073083120313DC006030DB00DB0BEA
:0C0FF000F72FDC0BF72FEA2F0134003440
:101DBE0064008001840A0406031900340406E02E30
:101DCE000730831603139F00C03081000A128A1554
:101DDE0039270A128A150A128A11A1220A128A15A5
:101DEE00F72E83120313DE00FD30DD005D0883162F
:101DFE000313870583120708FD3987005E080A1250
:101E0E008A158527080083120313DE00FD30DD00DE
:101E1E005D08831603138705831203130708023820
:101E2E0087005E080A128A1585270800831203139D
:101E3E00DC01DC0ADF30DB005B0883160313870549
:101E4E00831203138716831603130716F7308312B4
:101E5E000313DB005B08831603138705831203133A
:101E6E0087150800133083120313DF000030E000E3
:101E7E00F3010830730203186F2F8030DB00093036
:101E8E00DC007308DD005D07303E84005B088313C1
:101E9E008000840A5C0880008030DB000930DC00A2
:101EAE007308DD005D07203E84005B088000840A15
:101EBE005C0880007308DB005B07B43E8400800181
:101ECE00840A80017308013EDB005B08F300402F9B
:101EDE00F301263096006B309500013090000B30E8
:101EEE009700831603130C150A30831203139D00FB
:101EFE00831603130D140B178B1708008316031389
:101F0E00C400C701C501083045020318FE2F47085B
:101F1E0083120313DB005B07DC005C0883160313DC
:101F2E00C700F73083120313DB005B0887058316A7
:101F3E000313C41FA62F831203138716AB2FDF3094
:101F4E008312DB005B08870583160313C601831219
:101F5E0003134A088316031346020318C02F00000A
:101F6E00013083120313DB005B0883160313C607CD
:101F7E00AE2F831203138715071ECA2F8316031362
:101F8E0047080138CE2F831603134708FE398312F4
:101F9E000313DB005B0883160313C700C60183120D
:101FAE0003134A088316031346020318E82F000092
:101FBE00013083120313DB005B0883160313C6077D
:101FCE00D62F440883120313DB005B07DC005C088A
:101FDE0083160313C400013083120313DB005B0866
:101FEE0083160313C50708304502031C8E2F4708BE
:021FFE000800D9
:02400E00F93F78
:00000001FF
