:040000008A11112828
:10000800FE00030E83120313A0000408A1000A08CF
:10001800A2007F08A3008A15802D8A1113288A154B
:1000280063258A11F6008A1564258A11F7008A1556
:1000380065258A11F8008A1566258A11F900831347
:100048005630840076308A156F2583018A155E2F15
:1000580083120313A900FE30A70027088316031391
:10006800860583120608FE398600FD30A70027089A
:1000780083160313860583120608FD398600FB30B4
:10008800A700270883160313860583120608FB3981
:100098008600F730A7002708831603138605831206
:1000A8000608F7398600EF30A700270883160313E0
:1000B800860583120608EF398600DF30A700270877
:1000C80083160313860583120608DF39860029087C
:1000D800A70004300310A70CFF3E031D6E28270855
:1000E800A8002808AA00FE30A700270883160313D3
:1000F8008605831203132A1C8428060801388628DB
:100108000608FE3986002A08A7000310270CA80055
:100118002808AA00FD30A7002708831603138605C0
:10012800831203132A1C9B28060802389D280608F8
:10013800FD3986002A08A7000310270CA800280804
:10014800AA00FB30A700270883160313860583122D
:1001580003132A1CB22806080438B4280608FB39F9
:1001680086002A08A7000310270CA8002808AA0060
:10017800F730A70027088316031386058312031395
:100188002A1CC92806080838CB280608F73986002B
:1001980026080319DA28EF30A70027088316031367
:1001A80086058312031306081038860064308A1502
:1001B80076268A11DF3083120313A70027088316D7
:1001C800031386058312031306082038860064305B
:1001D8008A1576268A11DF3083120313A7002708B1
:1001E80083160313860583120608DF3986006430F8
:1001F8008A1576268A11FE3083120313A700270872
:1002080083160313860583120608FE398600FD301F
:10021800A700270883160313860583120608FD39ED
:100228008600FB30A7002708831603138605831270
:100238000608FB398600F730A70027088316031342
:10024800860583120608F7398600EF30A7002708CD
:1002580083160313860583120608EF3986002908DA
:100268000F39A7002708AA00FE30A7002708831621
:1002780003138605831203132A1C4529060801382F
:1002880047290608FE3986002A08A7000310270C0C
:10029800A8002808AA00FD30A70027088316031322
:1002A8008605831203132A1C5C29060802385E2976
:1002B8000608FD3986002A08A7000310270CA800A5
:1002C8002808AA00FB30A700270883160313860511
:1002D800831203132A1C7329060804387529060893
:1002E800FB3986002A08A7000310270CA800280855
:1002F800AA00F730A7002708831603138605831280
:1003080003132A1C8A29060808388C290608F73995
:100318008600260803199B29EF30A70027088316B3
:100328000313860583120313060810388600643009
:100338008A1576268A11DF3083120313A70027084F
:1003480083160313860583120313060820388600D4
:1003580064308A1576268A11DF3083120313A700CA
:10036800270883160313860583120608DF398600DB
:1003780064308A1576260800143083120313BB00F4
:100388003B08EA001430BB003B08EB001430BB000C
:100398003B08EC001430BB003B08ED000130AA001C
:1003A8000030AB008A15C7258A11831203132A0867
:1003B800BB003B08F6000230AA000030AB008A15EB
:1003C800C7258A11831203132A08BB003B08F700CC
:1003D8000330AA000030AB008A15C7258A118312A2
:1003E80003132A08BB003B08F8000430AA000030B9
:1003F800AB008A15C7258A11831203132A08BB008C
:100408003B08F9006A0876060319E82A8A15DA25EE
:100418008A1183120313AB0100308A150F268A1143
:10042800223083120313AB008030AC001030AD00D3
:100438000030AE008A15EC268A1183120313F301EB
:10044800BD2A8A1567258A118A1577258A1183128C
:100458000313BB003B08F5000A3075020318572A3E
:100468007508BB0073086A3E84003B08831380004C
:10047800AB01AB0A73088A150F268A116430831200
:100488000313AB008030AC000230AD000030AE008A
:100498008A15EC268A11831203137308013EBB00E8
:1004A8003B08F3007B2A0E307506031D7B2A730870
:1004B80003197B2A7308FF3EBB003B08F30073084F
:1004C8006A3E840083138001AB01AB0A73088A1566
:1004D8000F268A11623083120313AB008030AC0000
:1004E8000230AD000030AE008A15EC268A118A155C
:1004F80060258A110430831203137302031C252A12
:100508008A1567258A118A1577258A11831203139C
:10051800BB003B08F5000E307506031DB32A7308AF
:10052800FF3EBB003B08F30073086A3E8400831358
:100538008001AB01AB0A73088A150F268A11623055
:1005480083120313AB008030AC000230AD000030E2
:10055800AE008A15EC268A118A1560258A110F309B
:10056800831203137506031DBD2A0130BB003B0827
:10057800F400740803197E2A6A087606031DD02A37
:100588006B087706031DD02A6C087806031DD02A4D
:100598006D0879060319E42A8A15DA258A11583074
:1005A80083120313AB008030AC000A30AD0000307A
:1005B800AE008A15EC268A1102308A15F0258A11B8
:1005C80083120313F401062A6B087706031D0A2A0F
:1005D8006C087806031D0A2A6D087906031D0A2A85
:1005E8008A15DA258A114E3083120313AB00803046
:1005F800AC000A30AD000030AE008A15EC268A1136
:1006080001308A15F025080083120313F3018A15B7
:10061800DA258A11323083120313AB008030AC0024
:100628000F30AD000030AE008A15EC268A11831217
:100638000313AB01AB0A00308A150F268A1141302B
:1006480083120313AB008030AC000D30AD000030D6
:10065800AE008A15EC268A118A1567258A118A1533
:10066800DA258A11CD2B8A1567258A118A157725EF
:100678008A1183120313D4005408F5000A30750256
:100688000318682B7508D4007308763E8400540854
:1006980083138000AB01AB0A73088A150F268A11F1
:1006A800831203137508D400D5015408C7005508F0
:1006B800C8008A1553268A11831203137308013E52
:1006C800D4005408F3008C2B0E307506031D8C2BB8
:1006D800730803198C2B7308FF3ED4005408F300E9
:1006E8007308763E840083138001AB01AB0A73085C
:1006F8008A150F268A11623083120313AB008030EB
:10070800AC000230AD000030AE008A15EC268A112C
:100718008A1560258A110430831203137302031C9F
:10072800372B8A1567258A118A1577258A1183122E
:100738000313D4005408F5000F307506031DA92BC8
:100748000130D4005408F400CD2B0E307506031D7B
:10075800CD2B7308FF3ED4005408F30073086A3E9B
:10076800840083138001AB01AB0A73088A150F2636
:100778008A11623083120313AB008030AC00023060
:10078800AD000030AE008A15EC268A118A15602566
:100798008A1183120313740803198F2B0130A900DF
:1007A8000030AA007608D400D5015408AB005508DB
:1007B800AC008A1597258A11023083120313A90009
:1007C8000030AA007708D400D5015408AB005508BA
:1007D800AC008A1597258A11033083120313A900E8
:1007E8000030AA007808D400D5015408AB00550899
:1007F800AC008A1597258A11043083120313A900C7
:100808000030AA007908D400D5015408AB00550877
:10081800AC008A15972583120313F401080083128C
:1008280003133508C2003408C1003308C000320879
:10083800BF003B30C6009A30C500CA30C400003043
:10084800C300BE013708380403190800C21F422C30
:100858002D30B90036088400390883138000013030
:10086800B9003908BE07BF09C009C109C209BF0AD2
:100878000319C00A0319C10A0319C20ABD014208B3
:10088800410440043F04031DDB2CBD01BD0A0030B8
:10089800C6000030C5000030C4000130DA2C46081C
:1008A8004202031D612C45084102031D612C4408C6
:1008B8004002031D612C43083F020318662C3D08C3
:1008C8000319BE2C4608A7004508A6004408A50041
:1008D8004308A4004208AB004108AA004008A90048
:1008E8003F08A8008A15A0278A1183120313240839
:1008F800B9003908BD003D08303EB9003E0836074A
:10090800BA003A0884003908831380000130B9001E
:100918003908BE073D08B900BA01BB01BC013C0853
:10092800A7003B08A6003A08A5003908A400460815
:10093800AB004508AA004408A9004308A8008A1586
:100948001D278A11831203132408BF022508031CDC
:10095800250FAF2CB02CC0022608031C260FB52C7F
:10096800B62CC1022708031C270FBB2CBC2CC202C3
:10097800BD01BD0A0030A7000030A6000030A50068
:100988000A30A4004608AB004508AA004408A9009C
:100998004308A8008A15A0278A1183120313270881
:1009A800C6002608C5002508C4002408C3003E0860
:1009B800B900BA0138083A02031DE42C3708390295
:1009C8000318EC2C4608450444044304031D532C27
:1009D8003E08B900BA0138083A02031DF52C370859
:1009E8003902031808003E083607B90039088400A0
:1009F80083138001080083120313B5018A11AE2501
:100A08008A1183120313B501FF30B1003108B30016
:100A1800A82DFE30B1003108831603138705831211
:100A2800031307080138382DFD30B100310883164B
:100A3800031387058312031307080238382DFB3088
:100A4800B1003108831603138705831203130708BF
:100A58000438382DF730B1003108831603138705A1
:100A680083120313070808388700482D3508003A11
:100A780003190D2D013A0319182D033A0319232DD3
:100A8800013A03192E2D482D14308A1576268A111D
:100A98008A1175278A1183120313B1003108B40033
:100AA8007E2DFE30B10031088316031387058312AB
:100AB8000708FE397C2DFD30B10031088316031379
:100AC800870583120708FD397C2DFB30B1003108FA
:100AD80083160313870583120708FB397C2DF7302B
:100AE800B100310883160313870583120708F73905
:100AF80087008C2D3508003A0319552D013A031942
:100B08005F2D033A0319692D013A0319732D8C2DB2
:100B1800340A03199D2D3408B10002300310B10DB9
:100B2800FF3E031D922D35083107B2003208B3008D
:100B3800AC2D32308A1576268A11831203133508B4
:100B4800013EB1003108B50004303502031C3A2DCE
:100B58003308080083120313AF01F92D0730A400EE
:100B68000030A5008730A6000030A7001030AB0089
:100B78002B08A8000430E92D0730A4000030A50098
:100B88008730A6000030A7002030AB002B08A80053
:100B98000530E92D0730A4000030A5008730A600F5
:100BA8000030A7004030AB002B08A8000630E92D24
:100BB8000730A4000030A5008730A6000030A70049
:100BC8008030AB002B08A8000730AC002C08A90027
:100BD8008A1531268A1183120313AD002D08AE0041
:100BE8002F08013EAB002B08AF0004302F0203187A
:100BF8000C2E2F08003A0319B22D013A0319C02D03
:100C0800033A0319CE2D013A0319DC2DF42DF42DE6
:100C1800AF013B2EFE30AB002B088316031387056C
:100C280083120708FE39352EFD30AB002B088316DA
:100C38000313870583120708FD39352EFB30AB00F7
:100C48002B0883160313870583120708FB39352EF3
:100C5800F730AB002B0883160313870583120708A8
:100C6800F73987002F08013EAB002B08AF0004308E
:100C78002F02031808002F08003A03190E2E013A14
:100C88000319182E033A0319222E013A03192C2EA0
:100C9800362E362EFE3083120313AB002B08831634
:100CA8000313860583120608FE398600FD30AB0063
:100CB8002B0883160313860583120608FD39860060
:100CC800FB30AB002B088316031386058312060836
:100CD800FB398600F730AB002B0883160313860513
:100CE80083120608F7398600EF30AB002B0883160D
:100CF8000313860583120608EF398600DF30AB0040
:100D08002B0883160313860583120608DF3986002D
:100D18000C308A15B5258A1183120313A6013330C6
:100D28008A112C208A1102308A15B5258A1183125E
:100D38000313A60133308A112C208A1102308A1538
:100D4800B5258A1183120313A60132308A112C208B
:100D58008A1102308A15B5258A1183120313A60158
:100D68002C308A112C208A1102308A15B5258A1157
:100D780083120313A60106308A112C208A1102302F
:100D88008A15B5258A1183120313A6010C308A111E
:100D98002C208A1102308A15B5258A118312031373
:100DA800A60101308A112C208A1102308A15B52536
:100DB8008A1183120313A60102308A112C208A118A
:100DC80002308A15B5258A118A15DA2508008A1194
:100DD800FF248A1183120313B6003608B700370AB6
:100DE8000319FE2E3708013E84008A110A27B6002F
:100DF8003608B70037080800FF1B0A2F83137F182F
:100E080083170008840A0319FF0A080007308A00BC
:100E18000408840A820700340134023403340A3493
:100E28000434053406340B340734083409340C34DC
:100E38000E3400340F340D34313432343334413409
:100E4800343435343634423437343834393443342E
:100E58002A34303423344434003449346434653417
:100E68006E34743469346634693465347A342034C1
:100E780076346F3475347334003445346E347434D6
:100E880072346534723420346E346F347534763489
:100E980065346134753400346D346F3474342034FF
:100EA8006434653420347034613473347334653495
:100EB80000344234693465346E34763465346E34C3
:100EC80075346534003463346F34643465342034E5
:100ED80066346134753478340034203400342A346C
:100EE800003483120313B001AF01B001FF30AB002F
:100EF8002B08AE00DD2F0730A4000030A500873096
:100F0800A6000030A7001030AB002B08A800043062
:100F1800B62F0730A4000030A5008730A6000030A7
:100F2800A7002030AB002B08A8000530B62F0730EB
:100F3800A4000030A5008730A6000030A70040308C
:100F4800AB002B08A8000630B62F0730A4000030ED
:100F5800A5008730A6000030A7008030AB002B0822
:100F6800A8000730AC002C08A9008A1531268A1180
:100F780083120313AD002D08AF00D02F3008003ABC
:100F880003197F2F013A03198D2F033A03199B2F59
:100F9800013A0319A92FD02F2F080319D82F300889
:100FA800AB002B08AE00E12F3008013EAB002B0848
:100FB800B00004303002031CC22F2E080800831230
:100FC8000313A801A9012408831203178D008316AF
:100FD80003178C130C14831203170C0883120313C2
:100FE800A600A7012608A8002708A9002908A50027
:060FF8002808A400080017
:101AC0008A158B25080030343034303430348A1590
:101AD000A42583120313B9003908BA000800640072
:101AE0008001840A0406031900340406702D8A114B
:101AF000EB2683120313B8003808B9003908080030
:101B00002308FF0022088A0021088400200E830099
:101B1000FE0E7E0E09008A11FF248A15831203131C
:101B2000B6003608B700370A031908008B2D831258
:101B300003132A08A5002908A4002C08A7002B08D5
:101B4000A6008A15BF2608008A11FF248A15831271
:101B50000313B6003608B800380A0319A42D380854
:101B6000B6003608B7003708080083120313A50033
:101B7000013083120313A502250A0319080052300D
:101B800083120313A400A40BC32DC62DB82D8312FA
:101B900003132B08A5002A08A4008A11E327831247
:101BA00003132508AD002408AC002D08AB002C0859
:101BB000AA00080083120313A60101308A112C2009
:101BC0008A1502308A15B5258A1583120313A601DA
:101BD00002308A112C208A1502308A15B52508009A
:101BE00083120313A700A80127082802031808007E
:101BF000FA308A15B5258A15FA308A15B5258A1561
:101C0000FA308A15B5258A15FA308A15B5258A1550
:101C1000013083120313A6002608A807F42D8312AF
:101C20000313AD002B08031D172E8030182EC03073
:101C3000AC002C08AB00A6012D082B078A112C2024
:101C40008A1502308A15B5258A1583120313A60159
:101C50002D082B078A112C208A1502308A15B525EC
:101C6000080083120313260884008317271C83139C
:101C700000082804AA00260884008317271C831361
:101C80002A088000240884008317251C8313000879
:101C90002805AA00290A4E2E0310AA0CFF3E031D98
:101CA0004C2E2A080800831203134708B200480884
:101CB000B3000030B31BFF30B400B5004A30C90098
:101CC0004908B6000A30B7000030B8008A11132462
:101CD0008A154A3083120313AB000030AC000A307F
:101CE000AD000030AE008A15EC2608008312031305
:101CF000A50064302502031C8E2E073083120313C7
:101D0000A400A40B812E842E643083120313A50239
:101D1000792E8A2E0A3083120313A5020A30250277
:101D20000318892E013083120313A502250A031913
:101D30000800922E83120313A801A9012708290283
:101D4000031DA42E260828020318BA2E28082407EB
:101D5000840025080318250AFF008A1100278A1528
:101D6000003A0319BA2E0130A8070318A90A003057
:101D7000A9079E2E2908A5002808A400080083169C
:101D800003178C18BF2E8312031324088312031722
:101D90008D00831203132608831203178C00831609
:101DA00003178C130C1500308B1B013083120313A7
:101DB000A8008B135530831603178D00AA308D00B1
:101DC0008C148C18E12E831203132808031D8B1723
:101DD000831603170C11080083120313B1012B089B
:101DE000A4002C08A5002E08A7002D08A6008A151F
:101DF0009A268A15831203132408AF002F08B00017
:101E000030083102031808001030AF002F08A60078
:101E100031082B0784002C0803182C0AFF008A11B4
:101E200000278A158A112C208A1583120313310882
:101E3000013EAF002F08B100002F003083120313C2
:101E4000B0000030AF000030AE000030AD00241C08
:101E50003D2F2808AD07290803110318013E031D73
:101E6000AE072A0803110318013E031DAF072B0814
:101E700003110318013E031DB0070130AC0003102D
:101E8000A80DA90DAA0DAB0DAC0B3F2F013003100F
:101E9000A70CA60CA50CA40CFF3E031D472F27087A
:101EA000260425042404031D272F3008A7002F082B
:101EB000A6002E08A5002D08A400080007308316F0
:101EC00003139F00C03081008A114E268A1500300E
:101ED00083120313AA00AB008A15C7258A15831243
:101EE00003132A0883160313A00020088312031388
:101EF000F2007208031D9C2F8A1108238A150130F5
:101F000083160313A000200883120313F20000308D
:101F1000A900AA00720883160313A000A1012008DB
:101F200083120313AB0083160313210883120313D8
:101F3000AC008A1597258A158A11C0218A159F2F12
:101F4000003083120313B0000030AF000030AE0049
:101F50000030AD0027082604250424040319F72FB8
:101F6000B101B10AA71BC22F0130AC000310A40DB0
:101F7000A50DA60DA70DAC0BB62F0130AC002C089B
:101F8000B107B22F0130AC000310AD0DAE0DAF0D97
:101F9000B00DAC0BC42F27082B02031DD92F260828
:101FA0002A02031DD92F25082902031DD92F240831
:101FB0002802031CEA2F2408A8022508031C250F69
:101FC000A9022608031C260FAA022708031C270FB4
:101FD000AB022D1401300310A70CA60CA50CA40C09
:101FE000FF3E031DEB2F0130B102031DC22F30084D
:101FF000A7002F08A6002E08A5002D08A4000800A1
:02400E00F9FFB8
:104200000000010002000300410062004800650058
:104210006C006C006F00FF00FF00FF00FF00FF005C
:00000001FF
