:060000000A128A11122809
:10000800FE00030EF0000408F1000A08F200831253
:1000180003137F08F3000A128A15C12B0A128A11EA
:100028001528F701F801F9018313613084006C3059
:100038000A128A15B9230A128A11A0308400B43032
:100048000A128A15B92383010A128A118D2A0A1203
:100058008A15FE230A128A11EF3083120313AE00A9
:100068002E08831603138605831203130608103817
:10007800860005300A128A15CC230A128A11EF303D
:1000880083120313AE002E0883160313860583120A
:100098000608EF39860005300A128A15CC230A12A1
:1000A8008A11F73083120313AE002E088316031348
:1000B800860583120608F7398600FB30AE002E0845
:1000C8008316031386058312031306080438860073
:1000D800EF30AE002E088316031386058312031330
:1000E80006081038860005300A128A15CC230A1231
:1000F8008A11FB3083120313AE002E0883160313F4
:10010800860583120608FB398600CB300A128A1549
:10011800EC230A128A1139300A128A11E7220A12CC
:100128008A112C300A128A11E7220A128A11003029
:100138000A128A11E7220A128A1134300A128A1125
:10014800E7220A128A1102300A128A11E7220A12D9
:100158008A11CF300A128A15EC230A128A1100304C
:100168000A128A11E7220A128A11C1300A128A1168
:10017800E7220A128A1130300A128A11E7220A127B
:100188008A11E8300A128A15EC230A128A1185307E
:100198000A128A11E7220A128A1100300A128A11F9
:1001A800E7220A128A1178300A128A11E7220A1203
:1001B8008A11EA300A128A15EC230A128A110030D1
:1001C8000A128A11E7220A128A1100300A128A11C9
:1001D800E7220A128A11ED300A128A15EC230A1254
:1001E8008A1164300A128A11E7220A128A1103302E
:1001F8000A128A11E7220A128A1112300A128A1187
:10020800E7220A128A1181300A128A11E7220A1299
:100218008A11F7300A128A15EC230A128A11203043
:100228000A128A11E7220A128A11C0300A128A15A4
:10023800EC230A128A1123300A128A11E7220A12C1
:100248008A11C1300A128A15EC230A128A11103059
:100258000A128A11E7220A128A11C5300A128A156F
:10026800EC230A128A113E300A128A11E7220A1276
:100278008A1128300A128A11E7220A128A11C73015
:100288000A128A15EC230A128A1186300A128A1178
:10029800E7220A128A1136300A128A15EC230A124A
:1002A8008A1148300A128A11E7220A128A113A3052
:1002B8000A128A15EC230A128A1155300A128A1179
:1002C800E7220A128A11B1300A128A15EC230A129F
:1002D8008A1100300A128A11E7220A128A1118308C
:1002E8000A128A11E7220A128A11B6300A128A15EE
:1002F800EC230A128A1108300A128A11E7220A121C
:100308008A1182300A128A11E7220A128A112730CA
:100318000A128A11E7220A128A11F2300A128A1581
:10032800EC230A128A1100300A128A11E7220A12F3
:100338008A1126300A128A15EC230A128A11013012
:100348000A128A11E7220A128A11E0300A128A1563
:10035800EC230A128A110F300A128A11E7220A12B4
:100368008A1131300A128A11E7220A128A112B30B7
:100378000A128A11E7220A128A110C300A128A110B
:10038800E7220A128A110E300A128A11E7220A128B
:100398008A1108300A128A11E7220A128A114E308D
:1003A8000A128A11E7220A128A11F1300A128A11F6
:1003B800E7220A128A1137300A128A11E7220A1232
:1003C8008A1107300A128A11E7220A128A1110309C
:1003D8000A128A11E7220A128A1103300A128A11B4
:1003E800E7220A128A110E300A128A11E7220A122B
:1003F8008A1109300A128A11E7220A128A1100307A
:100408000A128A11E7220A128A11E1300A128A15A1
:10041800EC230A128A1100300A128A11E7220A1202
:100428008A110E300A128A11E7220A128A11143030
:100438000A128A11E7220A128A1103300A128A1153
:10044800E7220A128A1111300A128A11E7220A12C7
:100458008A1107300A128A11E7220A128A113130EA
:100468000A128A11E7220A128A11C1300A128A1165
:10047800E7220A128A1148300A128A11E7220A1260
:100488008A1108300A128A11E7220A128A110F30DB
:100498000A128A11E7220A128A110C300A128A11EA
:1004A800E7220A128A1131300A128A11E7220A1247
:1004B8008A1136300A128A11E7220A128A110F307D
:1004C8000A128A11E7220A128A1111300A128A15B1
:1004D800EC230A128A1178300A128A15CC230A12E0
:1004E8008A1129300A128A15EC230A128A112C3033
:1004F8000A128A15EC230A128A1183120313E701E0
:10050800E801FF30E900FF30EA000A128A15E42406
:1005180008000730831603139F00C03081000A12B9
:100528008A112B200A128A1102300A128A15B12365
:100538000A128A11C83083120313DF005F08F4001F
:10054800BE30E0006008F500D2300A128A159D24FA
:100558000A128A110A128A15E4240A128A11003032
:1005680083120313CD00CE000030CF00D000EF304F
:10057800D1000030D2003F30D3000130D400D50183
:10058800D6010A128A1519270A128A11ED30831228
:100598000313B1008430B2000D30B3000030B40052
:1005A8001E30B5000030B6003230B7000030B80059
:1005B8000230DF005F08B900BA010A128A11FA2472
:1005C8000A128A11E62A83120313A100F730A00049
:1005D80020088316031386058312031306080838B8
:0C05E800860021080A128A15DA23080098
:10060000FF1B0A2B83137F1883170008840A031922
:10061000FF0A08007F087F398A000408840A03194A
:10062000FF0A820000340034003400340034003407
:1006300006345F340634003407340334003407349E
:10064000033424347E3424347E34243424342B3450
:100650006A34123400346334133408346434633439
:10066000363449345634203450340034073403349B
:100670000034003400343E3441340034003400345B
:1006800041343E340034003408343E341C343E34AB
:100690000834083408343E34083408340034E03474
:1006A0006034003400340834083408340834083422
:1006B00000346034603400340034203410340834A2
:1006C000043402343E345134493445343E34003429
:1006D00042347F3440340034623451344934493434
:1006E00046342234493449344934363418341434C5
:1006F00012347F341034273445344534453439348A
:100700003C344A3449344934303401347134093486
:1007100005340334363449344934493436340634E4
:100720004934493429341E3400346C346C34003478
:1007300000340034EC346C340034003408341434A5
:1007400022344134003424342434243424342434F2
:10075000003441342234143408340234013459341E
:10076000093406343E3441345D3455341E347E340D
:100770000934093409347E347F34493449344934E6
:1007800036343E3441344134413422347F344134B0
:10079000413441343E347F3449344934493441345E
:1007A0007F3409340934093401343E344134493446
:1007B00049347A347F340834083408347F340034C0
:1007C00041347F3441340034303440344034403498
:1007D0003F347F3408341434223441347F3440347D
:1007E0004034403440347F340234043402347F34A3
:1007F0007F340234043408347F343E34413441348D
:1008000041343E347F3409340934093406343E34EB
:100810004134513421345E347F340934093419347D
:10082000663426344934493449343234013401348D
:100830007F34013401343F344034403440343F3459
:100840001F342034403420341F343F3440343C348F
:1008500040343F346334143408341434633407347C
:10086000083470340834073471344934453443341F
:10087000003400347F3441344134003402340434D1
:100880000834103420340034413441347F3400348F
:10089000043402340134023404348034803480342B
:1008A000803480340034033407340034003420347E
:1008B00054345434543478347F34443444344434D9
:1008C00038343834443444344434283438344434A8
:1008D000443444347F343834543454345434183425
:1008E00008347E340934093400341834A434A43470
:1008F000A4347C347F340434043478340034003439
:1009000000347D34003400344034803484347D3409
:1009100000347F341034283444340034003400343C
:100920007F34403400347C34043418340434783454
:100930007C3404340434783400343834443444345B
:1009400044343834FC344434443444343834383453
:10095000443444344434FC3444347834443404342B
:1009600008340834543454345434203404343E3479
:100970004434243400343C34403420347C34003457
:100980001C342034403420341C343C346034303443
:1009900060343C346C34103410346C3400349C3487
:1009A000A03460343C3400346434543454344C3413
:1009B000003408343E3441344134003400340034CF
:1009C0007F34003400340034413441343E34083440
:1009D00002340134023401340034433461342034AD
:1009E0006D346134723463346834653420343A349D
:1009F0002934003483120313CD01CD0ACE01CE0A6F
:100A0000352D0230BB003B08CD00862D0230BB00E7
:100A10003B08CD002A2D02302D2D0230BB003B08B3
:100A2000CD000430312D0230BB003B08CD00053035
:100A3000312D0230BB003B08CD000630312D033094
:100A4000BB003B08CD00CE01CE0A862D0330BB0093
:100A50003B08CD000230312D0330BB003B08CD00F8
:100A60000330BB003B08CE00862D3908013A03193C
:100A7000012D033A0319062D013A03190A2D073AED
:100A800003190B2D013A03190D2D033A0319132DE8
:100A9000013A0319192D0F3A03191F2D013A0319B1
:100AA000262D033A03192C2D862D862D03306B2D10
:100AB0000330712D0330772D0430802D0430BB00BE
:100AC0003B08CD0002307B2D0430BB003B08CD003D
:100AD00003307B2D0430BB003B08CD0004307B2D60
:100AE0000430BB003B08CD0005307B2D0430BB003B
:100AF0003B08CD000630BB003B08CE00D72D0530AB
:100B0000BB003B08CD00CE01CE0AD72D39080B3AE9
:100B10000319562D073A0319582D013A03195A2D76
:100B2000033A03195C2D013A03195E2D1F3A03198C
:100B3000642D013A03196A2D033A0319702D013A05
:100B40000319762D073A03197F2DD72DD72D0530A0
:100B5000BD2D0530C32D0530C92D0530CF2D0530F5
:100B6000BB003B08CD000630D32D0630BB003B0850
:100B7000CD00CE01CE0A012E0630BB003B08CD00D1
:100B80000230D32D0630BB003B08CD000330D32DFF
:100B90000630BB003B08CD000430D32D0630BB002F
:100BA0003B08CD000530BB003B08CE00012E3908C4
:100BB000153A0319A72D033A0319A92D013A031970
:100BC000AB2D0F3A0319AD2D013A0319AF2D033A9E
:100BD0000319B52D013A0319BC2D073A0319C22D8B
:100BE000013A0319C82D033A0319CE2D012E012E07
:100BF0000630BB003B08CD000630BB003B08CE00F2
:100C0000062E39081F3A0319F82D062EC901CB010B
:100C1000C2013108A0003208A1003408A300330843
:100C2000A2000A128A1541240A128A1183120313A0
:100C30002008BB003B08C40044084B02031808000E
:100C40004B083107840032080318320AFF000A12E9
:100C50008A1100230A128A11E03EBB003B08C30040
:100C6000CC0105304C0203184E2E4C08BB003B084B
:100C7000A40043080A128A156A240A128A118312F0
:100C80000313BC004C083D3E84003C0883138000E5
:100C90004C08013EBB003B08CC00312E4C083D3EC9
:100CA000840083138001C701063047020318DE2E3B
:100CB000C6014D0846020318D82ECA01C801F730F4
:100CC000BB003B0883160313860583120313060833
:100CD00008388600FB30BB003B08831603138605EB
:100CE00083120608FB398600083048020318CD2E0F
:100CF000C5014E0845020318C72E47083D3E840033
:100D00000130BB00480A862E0310BB0DFF3E031DB9
:100D1000842E3B08831300050319A22E49083507CA
:100D2000A90036080318360AAA004A083707AB009C
:100D300038080318380AAC000A128A153C250A1232
:100D40008A11BA2E831203133A08031DBA2E4908DA
:100D50003507A90036080318360AAA004A083707DB
:100D6000AB0038080318380AAC000A128A156B2643
:100D70000A128A11831203134508013EBB003B0887
:100D8000C5004A08013EBB003B08CA00792E48084E
:100D9000013EBB003B08C800742E4608013EBB0064
:100DA0003B08C6004908013EBB003B08C900592E5C
:100DB0004708013EBB003B08C700542E4B08013ECC
:100DC000BB003B08CB001C2E83120313CB01CC01CC
:100DD0000130BF000030C0000130C1000030C2004F
:100DE0003109B9003209BA00B90A0319BA0A35083B
:100DF0003907C30036080318360A3A07C400330916
:100E0000B9003409BA00B90A0319BA0A3708390710
:100E1000C50038080318380A3A07C6003208C80067
:100E20003108C7003408CA003308C900C41F212F85
:100E3000FF30C100FF30C200C309C409C30A03194F
:100E4000C40AC61F2C2FFF30BF00FF30C000C509E9
:100E5000C609C50A0319C60A4408803AB9004608FB
:100E6000803A3902031D362F45084302031C932F95
:100E7000031083120313430DBB00440DBC00031089
:100E8000450DBD00460DBE0083120313360848060B
:100E9000031D4C2F350847060319ED2F4808AA00FB
:100EA0004708A9004A08AC004908AB000A128A1595
:100EB0003C250A128A118312031341084707C70011
:100EC00042080318420A4807C8003D084B07CB00F8
:100ED0003E0803183E0A4C07CC004408803AB9008B
:100EE0004C08803A3902031D772F4B084302031840
:100EF000442F831203133F084907C9004008031811
:100F0000400A4A07CA003B09B9003C09BA00B90ABD
:100F10000319BA0A4B083907CB004C0803184C0ACE
:100F20003A07CC00442F83120313450DBB00460D36
:100F3000BC000310430DBD00440DBE00831203131B
:100F400038084A06031DA62F370849060319ED2F56
:100F50004808AA004708A9004A08AC004908AB00A5
:100F60000A128A153C250A128A11831203133F08BC
:100F70004907C90040080318400A4A07CA003D084B
:100F80004B07CB003E0803183E0A4C07CC0046082E
:100F9000803AB9004C08803A3902031DD12F4B0822
:100FA000450203189E2F8312031341084707C70009
:100FB00042080318420A4807C8003B09B9003C0927
:100FC000BA00B90A0319BA0A4B083907CB004C0812
:100FD00003184C0A3A07CC009E2F4808AA0047087D
:100FE000A9004A08AC004908AB000A128A153C2542
:020FF0000800F7
:10176200F5007508F400740883120313EB000800F7
:1017720064008001840A0406031900340406BA2BAB
:101782007308FF0072088A0071088400700E8300DB
:10179200FE0E7E0E0900F5000130F502750A0319EE
:1017A2000800C730F400D52BF40BD42BD82BD92B3F
:1017B200CD2BF500F60175088312031393008316EF
:1017C2000313141CE02B831203131308F400740890
:1017D200F6007608080083120313A100F730A00078
:1017E200200883160313860583120608F73986003C
:1017F20021080A128A15DA230800F501F50ADF30FA
:10180200F4007408831603138705831203138716E3
:10181200831603130716F730F40074088705831242
:10182200031387150130940014168316031314133F
:1018320094138312031394160800F401F501831222
:101842000313201C2A2C2208F4070318F50A230884
:10185200F50701300310A20DA30DFF3E031D2B2C33
:1018620001300310A10CA00CFF3E031D322C2008F6
:101872002104031D202C7508A1007408A000080093
:10188200F401F5018312031323087502031D4B2C87
:10189200220874020318652C7408831203132007AC
:1018A200840021080318210AFF000A128A1100236A
:1018B2000A128A15003A0319652C0130F40703183D
:1018C200F50A0030F507432C7508A1007408A00042
:1018D200080083120313AA005F302A02031C732C30
:1018E200AA30982C2A08A500A6012508A0002608DF
:1018F200A1000530A2000030A3000A128A151E249E
:101902000A128A158312031324082007A700003045
:10191200031801302107A80083302807FF00123086
:10192200270784000318FF0A0A128A110023A50060
:101932002508A90029080800F60076088312031377
:10194200A00003300310A00CFF3E031DA32C2008AF
:10195200A1002108F6007408A00002300310A00CB8
:10196200FF3E031DAF2C2008A1002108F4007508DA
:10197200A00003300310A00CFF3E031DBB2C200867
:10198200A1002108F5007408A000A1010530FF00A4
:101992000310A00DA10DFF0BC92C20087504E9004E
:1019A2002108EA007608A000A1010B30FF00031015
:1019B200A00DA10DFF0BD82C69082004E9006A08CC
:1019C2002104EA00080083120313AA01AB01AC014F
:1019D200AD010030A000A1000030A200A300EF3052
:1019E200A4000030A5003F30A6000130A7000A1273
:1019F2008A15D3250A128A15F73083120313A90018
:101A02002908831603138605831203130608083870
:101A1200860001302B02403003192A020318080005
:101A2200AC01AD0100302D02F03003192C02031875
:101A3200332D6A080A128A15DA230A128A158312CA
:101A4200031369080A128A15DA230A128A15831205
:101A520003132C08013EAC002D080318013E003E82
:101A6200AD00132D2A08013EAA002B080318013EDF
:101A7200003EAB000A2DA22D831203132B08013E58
:101A8200AD002C080318013E003EAE00AD09AE09C0
:101A9200AD0A0319AE0A2D08F03EAF002E08031856
:101AA200013E003EB0002A08AC002908AB009D2D83
:101AB2002908013EAD002A080318013E003EAE008F
:101AC200AD09AE09AD0A0319AE0A2D08F03EA90010
:101AD2002E080318013E003EAA002B08013EAD006D
:101AE2002C080318013E003EAE00AD09AE09AD0A56
:101AF2000319AE0A2D08403EAB002E080318013E22
:101B0200013EAC00AF2D2C08B0002B08AF00290815
:101B1200013EAD002A080318013E003EAE00AD09A9
:101B2200AE09AD0A0319AE0A2D08403EAB002E08DD
:101B32000318013E013EAC003008AA002F08A9009C
:101B4200AF2D831203136B08013A03193D2D033A9B
:101B52000319592D013A0319842DAF2D2A08A1002A
:101B62002908A0002C08A3002B08A2002A08A5001F
:101B72002908A4002C08A7002B08A6000A128A151F
:101B8200D3250A128A158312031368080A128A15CA
:101B9200DA230A128A158312031367080A128A15B6
:101BA200DA230800F73083120313A80028088316EB
:101BB2000313860583120608F73986002A300A12B3
:101BC2008A15DA230A128A15F73083120313A80042
:101BD20028088316031386058312031306080838A0
:101BE200860021080A128A15DA230A128A1583123C
:101BF200031320080A128A15DA230A128A1583129D
:101C0200031325080A128A15DA230A128A15831287
:101C1200031324080A128A15DA230A128A15F730E6
:101C220083120313A8002808831603138605831260
:101C32000608F73986002B300A128A15DA230A12AF
:101C42008A15F73083120313A8002808831603139A
:101C520086058312031306080838860023080A1231
:101C62008A15DA230A128A158312031322080A122A
:101C72008A15DA230A128A158312031327080A1215
:101C82008A15DA230A128A158312031326080A1206
:101C92008A15DA230A128A15F73083120313A80071
:101CA200280883160313860583120608F73986006F
:101CB2002C300A128A15DA23F73083120313A80094
:101CC20028088316031386058312031306080838AF
:101CD20086000800D12E831203132B08013EAD00AB
:101CE2002C080318013E003EAE00AD09AE09AD0A54
:101CF2000319AE0A2D08F03EAF002E080318013E6C
:101D0200003EB0002A08AC002908AB00CC2E2908FE
:101D1200013EAD002A080318013E003EAE00AD09A7
:101D2200AE09AD0A0319AE0A2D08F03EA9002E082D
:101D32000318013E003EAA002B08013EAD002C080C
:101D42000318013E003EAE00AD09AE09AD0A03190B
:101D5200AE0A2D08403EAB002E080318013E013E9C
:101D6200AC00DE2E2C08B0002B08AF002908013E83
:101D7200AD002A080318013E003EAE00AD09AE09CF
:101D8200AD0A0319AE0A2D08403EAB002E08031817
:101D9200013E013EAC003008AA002F08A900DE2E49
:101DA200831203136B08013A03196C2E033A0319C9
:101DB200882E013A0319B32EDE2E2A08A100290823
:101DC200A0002C08A3002B08A2002A08A5002908BD
:101DD200A4002C08A7002B08A6000A128A15D325F6
:101DE2000A128A15FB3083120313AD002D088316E5
:101DF2000313860583120608FB3986006A080A1255
:101E02008A15DA230A128A158312031369080A1241
:101E12008A15DA23FB3083120313AD002D088316D3
:101E2200031386058312031306080438860008008C
:101E3200831203134E08B2004D08B1005008B400DB
:101E42004F08B3005208B6005108B5005008B80058
:101E52004F08B7000A128A11E4260A128A15831261
:101E620003135208B2005108B1005008B4004F08E1
:101E7200B3005208B6005108B5005408B800530820
:101E8200B7000A128A11E4260A128A158312031372
:101E92004E08B2004D08B1005408B4005308B30014
:101EA2005208B6005108B5005408B8005308B700EC
:101EB2000A128A11E4260A128A15831203134E08A3
:101EC200B2004D08B1005008B4004F08B3004E08EC
:101ED200B6004D08B5005408B8005308B7000A12FE
:101EE2008A11E4260A128A15831203135508031D68
:101EF20008004E085202031D802F4D08510203189C
:101F02008B2F4E08DA004D08D9005108013ED70048
:101F12005208932F5208DA005108D9004D08013EA9
:101F2200D7004E080318013E003ED8005008540264
:101F3200031D9D2F4F0853020318A82F5008DE00DF
:101F42004F08DD005308013EDB005408B02F54084F
:101F5200DE005308DD004F08013EDB005008031885
:101F6200013E003EDC005C08D0005B08CF005E084A
:101F72005002031DBE2F5D084F02031808005808C7
:101F8200CE005708CD005A084E02031DCA2F590829
:101F92004D020318F72F56080319DD2F4E08AA0029
:101FA2004D08A9005008AC004F08AB000A128A1570
:101FB2003C250A128A15EC2F831203134E08AA003D
:101FC2004D08A9005008AC004F08AB000A128A1550
:101FD2006B260A128A15831203134D08013ECD00A7
:101FE2004E080318013E003ECE00C42F4F08013EAA
:0E1FF200CF0050080318013E003ED000B82F6B
:02400E00713F00
:00000001FF
